:100000000C942A000C943C000C943C000C943C0092
:100010000C943C000C94BD050C94E0000C947D0401
:100020000C943C000C943C000C943C000C943C0060
:100030000C943C000C943C000C943C000C943C0050
:100040000C943C000C943C000C943C000C943C0040
:100050000C943C0011241FBECFE5D4E0DEBFCDBF21
:1000600010E0A0E6B0E001C01D92AC3DB107E1F7A1
:100070000E9460000C9405140C9400001ABA8FE9D9
:1000800087BB8FEF84BB82EF81BB1BBA18BA15BA4E
:1000900081E082BB08950E940A02B6990AC0B59910
:1000A00008C002C00E94640BB69BFCCFB59BFACF80
:1000B0000895B59904C0B59BFECF0E94640B0895C6
:1000C0000E943E000E9470000E9405020E945B0197
:1000D0000E944A040E94FA0378940E944B00FDCFCC
:1000E00080E28FBD8AE18EBD80E094E297BD86BD3F
:1000F0008EE290E09BBD8ABD80E89DE099BD88BD01
:1001000089B7886389BF08958295880F880F807C9E
:100110008093C1008091C100660F660F862B80938B
:10012000C1008091C1008C7C8093C10080916300EC
:10013000837380936300909163008091C100892B49
:100140008093630008950F931F93182F062F82E06A
:1001500061E00E9484001093BF000093A7001F91EC
:100160000F9108950F931F93182F062F81E062E0DF
:100170000E9484001093BF000093A7001F910F916D
:1001800008950F931F93182F062F81E061E00E94BE
:1001900084001093BF000093A7001F910F91089552
:1001A0000F931F93182F062F82E062E00E948400B5
:1001B0001093BF000093A7001F910F910895089519
:1001C0001F920F920FB60F9211242F933F934F93CC
:1001D0005F936F937F938F939F93AF93BF93EF93AF
:1001E000FF938AB59BB58E969BBD8ABD2AB53BB55C
:1001F00086B597B52817390720F08EE290E09BBDB1
:100200008ABD909160009F5F90936000943608F1E2
:1002100010926000809163008373809363009091DB
:1002200063008091C100892B809363008091BF009F
:10023000882329F4809163008F73809363008091F9
:10024000A7008823F1F480916300837F809363008B
:1002500018C0209163008091BF00981728F080910A
:1002600063008F73809363008091A700981728F034
:1002700080916300837F8093630080916300821785
:1002800049F00E9469018FEF84BB8091630085BBB8
:10029000979A9798FF91EF91BF91AF919F918F910E
:1002A0007F916F915F914F913F912F910F900FBE72
:1002B0000F901F90189580E060E00E9484001092DB
:1002C000A7008091A7008093BF0084E60E94EB0105
:1002D000089588B38C7F88BB82B38F7182BB0895E9
:1002E00088B38C7F88BB82B38F7182BB8FEF84BB56
:1002F0008091C10085BB9798979A97980895EF923F
:10030000FF920F931F93CF93DF9314BAB99886E0AF
:100310008A95F1F783B38093AA00B99AF0E0A0E040
:10032000B0E0C7E0D0E081E0E82EF12C00E810E07A
:100330004091AA006091AA00C7010A2E02C0880F4E
:10034000991F0A94E2F750E0842395230C2E02C0F3
:10035000880F991F0A94E2F7A8010A2E02C055954A
:1003600047950A94E2F79A0170E0262337230C2E72
:1003700002C0359527950A94E2F7822BF82B119647
:100380002297A430B105A1F6F093AA00DF91CF9196
:100390001F910F91FF90EF90089514BAB89886E0DE
:1003A0008A95F1F783B38093A500B89A089514BA9B
:1003B0008E9886E08A95F1F783B3809398008E9AA1
:1003C000089520E036E004C0932F9A95F1F72F5F4F
:1003D0002817D0F3089590E020E032E104C0F9013D
:1003E0003197F1F79F5F9817D0F3089520E040E030
:1003F00052E108C090E0FA013197F1F79F5F9A3F10
:10040000D1F72F5F2817B0F3089580E287B987E806
:1004100086B9089580E287B9369A3699FECF85B1BC
:100420008093C30083E287B9369A3699FECF85B1AF
:1004300080939B0082E287B9369A3699FECF85B1C8
:1004400080939A00089580E287B9369A3699FECF54
:1004500085B18093C30008959FEF94BB15BA617076
:100460006295660F607E95B39F7D962B95BBAC9889
:100470009598959A95B38F70892B85BB8DE38A9556
:10048000F1F795980895282FE4EDF0E090E840E327
:1004900031E3892F822311F0308301C040833196EC
:1004A00080E0EC3DF80711F09695F3CF0895282FE2
:1004B00064E60E94D213805D8093D400822F0E9454
:1004C000D213292F892F6AE00E94D213805D809376
:1004D000D500822F0E94D213905D9093D60080E2C7
:1004E0008093D7008093D8008093D9008093DA005E
:1004F0008093DB0008959C0160E177E20E94DE13A7
:10050000605D6093D400C90160E177E20E94DE1370
:100510009C0168EE73E00E94DE13605D6093D5007D
:10052000C90168EE73E00E94DE139C0164E670E08E
:100530000E94DE13605D6093D600C90164E670E03E
:100540000E94DE139C016AE070E00E94DE13605D91
:100550006093D700C9016AE070E00E94DE13805DFD
:100560008093D80080E28093D9008093DA00809352
:10057000DB0008950F931F93182F062F0E94690127
:10058000812F82958F70602F0E942C02812F8F7097
:10059000602F0E942C021F910F9108951F9380ECF1
:1005A00060E00E94BA0218EB812F8A95F1F786E588
:1005B00061E00E94BA02812F8A95F1F782E561E03D
:1005C0000E94BA02812F8A95F1F780E361E00E94D0
:1005D000BA021A95F1F780E261E00E94BA021F9117
:1005E00008951F9380E860E00E94BA0218EB812F03
:1005F0008A95F1F78DE461E00E94BA02812F8A9515
:10060000F1F78AE361E00E94BA021A95F1F780E2FD
:1006100061E00E94BA021F9108951F9380EC60E090
:100620000E94BA0218EB812F8A95F1F78CE461E001
:100630000E94BA02812F8A95F1F78AE361E00E9455
:10064000BA021A95F1F780E261E00E94BA021F91A6
:1006500008951F9380E860E00E94BA0218EB812F92
:100660008A95F1F783E461E00E94BA02812F8A95AE
:10067000F1F78AE361E00E94BA021A95F1F780E28D
:1006800061E00E94BA021F9108958091C0008130FC
:1006900091F480916100863019F40E94F10211C03A
:1006A000809161008730E9F40E94CE0282E080935D
:1006B000C0008FE007C080916100863031F40E9455
:1006C000290380EF8093A600089580916100873010
:1006D00041F40E940D0381E08093C0008FE080937D
:1006E000A6000895FF920F931F93CF93DF9368178F
:1006F000D0F0681B6F5F90E08C010C531F4FEC0132
:10070000C60FD11DCC53DF4F88EBF82E09C0F8017E
:1007100081918F0161E00E94BA028F2D8A95F1F7D5
:100720000C171D07A1F7DF91CF911F910F91FF903B
:1007300008951F93182F413021F4862F0E94430201
:100740000BC0433021F4862F0E94570205C044306D
:10075000E9F4CB010E947B0220E030E0F901EC5388
:10076000FF4FD901AC52BF4F8C9180832F5F3F4F19
:100770002830310599F7812F60E00E94BA0288EB9A
:100780008A95F1F780E067E00E9472031F91089557
:100790008091C000813079F480916100843019F437
:1007A0006091AA000EC0809161008530D9F46091FB
:1007B000A50084EC07C080916100843041F4609111
:1007C000980084E870E041E00E94990308958091C8
:1007D0006100853039F46091C30084EC70E043E03F
:1007E0000E949903089560E00E94BA0288EB8A95FE
:1007F000F1F708950F931F930E9469018FEF85BB56
:1008000082E30E94EB0180E060E00E94BA021AE7F6
:10081000812F8A95F1F780E060E00E94BA02812F73
:100820008A95F1F780E060E00E94BA02812F8A95F4
:10083000F1F780E060E00E94BA021A95F1F788E2D1
:1008400060E00E94BA0200E014EBC8010197F1F7E2
:100850008CE060E00E94BA02C8010197F1F786E0DF
:1008600060E00E94BA02C8010197F1F781E060E000
:100870000E94BA02C8010197F1F781E08093C0009D
:100880000E94290388EB8A95F1F70E940D031F91BE
:100890000F91089580E090E020E83DE0FC01EE0F2C
:1008A000FF1FE255FF4F3183208301968830910569
:1008B000A9F72EED3DE03093B5002093B4008EE90A
:1008C00097E09093B3008093B2008CE39FE0909305
:1008D000B1008093B00088E29AE09093AF008093DB
:1008E000AE003093B7002093B600089582E59DE0F6
:1008F0009093B7008093B60008951F920F920FB6A1
:100900000F9211248F939F93789488B3837E88BB32
:1009100098B380916200880F880F892B88BB89B7B4
:10092000877F89BF80E38FBD86B597B599BD88BDA8
:100930009F918F910F900FBE0F901F9018958AE195
:1009400094E09093B3008093B20084E60E94EB01A0
:10095000089586E495E09093B3008093B20084E616
:100960000E94EB0184E60E94EB018AEF0E94EB01FA
:1009700008958AEC98E09093B3008093B20084E6E7
:100980000E94EB0108958EED9DE09093B700809357
:10099000B60084E60E94EB0108959093B500809321
:1009A000B40088E00E94EB010895CF93DF93CEED71
:1009B000DDE0D093B500C093B40088E00E94EB0165
:1009C0002A978CE0C434D807A1F78EE49CE090937A
:1009D000B5008093B40088E00E94EB01DF91CF91D5
:1009E0000895CF93DF93CEEDDDE0D093B500C093B3
:1009F000B40088E00E94EB012A978BE0CE30D80744
:100A0000A1F788E19BE09093B5008093B40088E063
:100A10000E94EB01DF91CF910895CF93DF93C8E15E
:100A2000DBE0D093B500C093B40088E00E94EB01F6
:100A3000A8968DE0C03CD807A1F78EED9DE090937D
:100A4000B5008093B40088E00E94EB01DF91CF9164
:100A500008958EED9DE09093B5008093B40088E0FA
:100A60000E94EB0182E30E94EB0108958EE997E07A
:100A70009093B3008093B20084E60E94EB01089546
:100A800088E190E19093B3008093B20084E60E94E5
:100A9000EB0184E60E94EB01089584E893E09093D3
:100AA000B3008093B20084E60E94EB0184E60E94CA
:100AB000EB010895CF93DF93CAECD8E0D093B30055
:100AC000C093B20088E00E94EB01649786E0C638CC
:100AD000D807A1F782E796E09093B3008093B20025
:100AE000DF91CF91089582E796E09093B3008093D1
:100AF000B20084E60E94EB0184E60E94EB010895B7
:100B000084E59BE09093B1008093B0008CEA9DE077
:100B10009093AF008093AE0084E60E94EB010895AD
:100B20008CE39FE09093B1008093B00088E29AE05C
:100B30009093AF008093AE0084E60E94EB0108958D
:100B400080EF9AE09093B1008093B00084E29EE041
:100B50009093AF008093AE0084E60E94EB0108956D
:100B600082E59DE09093B7008093B60084E00E94F8
:100B7000F60184E60E94EB0108951F920F920FB6D2
:100B80000F9211242F933F934F935F936F937F9313
:100B90008F939F93AF93BF93EF93FF9388B7886032
:100BA00088BF80E28FBDE0916200F0E0EE0FFF1F92
:100BB000E255FF4F8081918199BD88BD89B78860DA
:100BC00089BF7894809162008F5F809362008091EA
:100BD0006200883010F0109262000E947F010E9433
:100BE000CD010E94D701809161008F5F80936100E9
:100BF00080916100843099F0853028F4813061F073
:100C0000813018F124C0863069F0863040F087309A
:100C100099F08830D1F417C00E94230218C00E94B6
:100C2000C80315C0B69905C08091A600882379F441
:100C300007C01092A6000BC08091A600803F39F437
:100C40000E94450304C00E94380610926100FF9183
:100C5000EF91BF91AF919F918F917F916F915F9134
:100C60004F913F912F910F900FBE0F901F901895AD
:100C70001092A2000E9469018FEF84BB30E828E047
:100C800090E046E0809163008C7F809363008091C8
:100C90006300892B809363008091630085BBF89487
:100CA000979A97987894842F8A95F1F7CC9B05C0F2
:100CB0008091A200832B8093A200CD9B05C08091E0
:100CC000A200822B8093A2009F5F943019F036958A
:100CD0002695D8CF08951F93182F2091A20081E167
:100CE00090E0012E02C0880F991F0A94E2F78095C8
:100CF00082238093A200809163008C7F80936300A5
:100D000080916300812B809363000E9469018FEFC3
:100D100084BB8091630085BBF894979A97987894E8
:100D2000CC9B0DC02091A20080E190E0012E02C07A
:100D3000880F991F0A94E2F7282B2093A200CD9BDD
:100D40000CC02091A20081E090E002C0880F991FA2
:100D50001A95E2F7282B2093A2001F9108951F9364
:100D600084EB809364000E94B80D82E080939D0024
:100D700084E064E00E940A0C409197004150409347
:100D8000AD0089E06AE00E946E108093AC00909103
:100D90009700913011F09330E1F48E568A30C8F408
:100DA00085EB809364000E94780E88E06AE041E061
:100DB0000E946E100E94761380E06AE041E00E947B
:100DC000560F8091970081508093970081E0809327
:100DD0009D0040919700433031F482E00E9404125C
:100DE0004091970004C080919D00813041F04150B6
:100DF0004093AD0089E06AE00E946E1001C088E770
:100E00008093AC00109197001130F9F48091AC0000
:100E10008E568A30D0F486EB809364000E94780E60
:100E200088E06AE041E00E946E100E947613109301
:100E3000AD0080E06AE041E00E94560F809197008B
:100E400081508093970010939D00409197004150EE
:100E50004093AD0089E06AE00E946E1080919D0091
:100E6000813041F48093AD0080E06AE041E00E946F
:100E7000560F0BC083E00E94041281E08093AD0006
:100E800088E06AE041E00E946E1087EB8093640086
:100E900080917100819590917800891B8E5F90916F
:100EA0007F00891B80936A0081E063E00E940A0C46
:100EB000809178008823C1F188EB8093640080E002
:100EC0000E94041211E01093AD0088E06AE041E056
:100ED0000E946E1081E00E9404121093AD0088E021
:100EE0006AE041E00E946E1089E10E94FB0C0E94C2
:100EF000761389E10E94C30C82E00E9404121093D1
:100F0000AD0088E06AE041E00E946E1083E00E943C
:100F100004121093AD0088E06AE041E00E946E1078
:100F200081E063E00E940A0C80916A008823C1F18D
:100F300089EB8093640082E00E94041211E0109318
:100F4000AD0088E06AE041E00E946E1081E00E94FE
:100F500004121093AD0088E06AE041E00E946E1038
:100F600089E10E94FB0C0E94761389E10E94C30C68
:100F700080E00E9404121093AD0088E06AE041E036
:100F80000E946E1083E00E9404121093AD0088E06E
:100F90006AE041E00E946E1081E063E00E940A0C6A
:100FA0008EEB8093640080919D00813061F083E03E
:100FB0000E9404124091A9004093AD0088E06AE0CD
:100FC0000E946E1007C08091A9008093AD0084E15B
:100FD0000E94C80E82E00E94041211E01093AD003E
:100FE00088E06AE041E00E946E100E94E20D8AE013
:100FF0000E94FE0E0E94931384E10E94C80E0E947C
:10100000B80D84E08093AD0010929D0088E06AE006
:1010100044E00E946E1081E00E94041243E080913F
:10102000A900481B4093AD0089E06AE00E946E1061
:101030008091A9008230D1F48FEB809364000E94EC
:10104000780E88E06AE041E00E946E100E947613FC
:101050001093AD0080E06AE041E00E94560F80915D
:10106000A9008F5F8093A9000E94AE0E43E080919B
:10107000A900481B4093AD0088E06AE00E946E1012
:101080008091A9008230D9F48FEB809364000E9494
:10109000780E88E06AE041E00E946E100E947613AC
:1010A00081E08093AD0080E06AE041E00E94560F4D
:1010B0008091A9008F5F8093A9000E94AE0E43E04B
:1010C0008091A900481B4093AD0088E06AE00E942F
:1010D0006E1011E01093AD0080E06AE041E00E94E4
:1010E000560F82E00E94041284E062E00E940A0C23
:1010F00020918B00822F819590918A00891B8E5FB1
:1011000090918900891B809388002223C1F182E09D
:101110000E9404121093AD0088E06AE041E00E9452
:101120006E1083E062E00E940A0C81E00E940412CB
:101130001093AD0088E06AE041E00E946E1080E00C
:101140000E9404121093AD0088E06AE041E00E9422
:101150006E1089E10E94FB0C0E94761389E10E94C7
:10116000C30C83E00E9404121093AD0088E06AE093
:1011700041E00E946E1084E062E00E940A0C8091BF
:1011800089008823D1F180919700843059F482E05E
:101190000E94041281E08093AD0088E06AE041E0A3
:1011A0000E946E1083E00E94041211E01093AD00C3
:1011B00088E06AE041E00E946E1080E00E94041224
:1011C0001093AD0088E06AE041E00E946E1089E172
:1011D0000E94FB0C0E94761389E10E94C30C83E0FD
:1011E0000E9404121093AD0088E06AE041E00E9482
:1011F0006E1084E060E00E940A0C809188008823D1
:1012000051F18091A900823059F483E00E940412C8
:101210004091A9004093AD0088E06AE00E946E1002
:1012200080E00E94041211E01093AD0088E06AE0B3
:1012300041E00E946E100E9476131093AD0080E092
:101240006AE041E00E94560F81E00E94041284E0AF
:1012500060E00E940A0C8091A900823059F483E07A
:101260000E9404124091A9004093AD0088E06AE01A
:101270000E946E1082E00E940412409197004093F9
:10128000AD0088E06AE00E946E100E94E20D8AE0E4
:101290000E94FE0E0E94931384E10E94C80E0E94D9
:1012A000B80D1F9108951F9314E08091A900412F5C
:1012B000481B4093AD0087E06AE00E946E10809367
:1012C000AC0084568A3060F40E944D138091A900CE
:1012D000412F481B4093AD0087E06AE00E946E10EA
:1012E00080917000882379F18BE08093640011E095
:1012F0001093AD0080E06AE041E00E94560F80E06C
:101300000E9404121093AD0087E06AE041E00E9461
:101310006E1081E00E9404121093AD0087E06AE035
:1013200041E00E946E108093AC0084568A3010F425
:101330000E941A138091A400833008F0A7C180E0B6
:101340000E94041204C00E94A00D10929D0084E12E
:101350008093640014E080919700412F481B4093D4
:10136000AD0087E06AE00E946E108093AC00845666
:101370008A3078F485E1809364000E944D13809157
:101380009700412F481B4093AD0087E06AE00E9420
:101390006E1080918400882389F186E18093640037
:1013A00011E01093AD0080E06AE041E00E94560F2A
:1013B00083E00E9404121093AD0087E06AE041E0F0
:1013C0000E946E1080E00E9404121093AD0087E02E
:1013D0006AE041E00E946E108093AC0084568A302F
:1013E00010F40E941A138091A400833008F04EC1BB
:1013F00083E00E94041284E063E00AC087E18093E6
:1014000064000E94A00D83E080939D0084E064E06E
:101410000E940A0C8EE1809364004091A9004093E1
:10142000AD0087E06AE00E946E108093AC008456A5
:101430008A3090F48FE1809364000E941A138091A7
:10144000A400833008F022C14091A9004093AD0070
:1014500087E06AE00E946E1082E00E94041284E03D
:1014600060E00E940A0C88E280936400409197003B
:1014700041504093AD0087E06AE00E946E10809377
:10148000AC0084568A3098F489E2809364000E940C
:101490001A138091A400833008F0F8C0409197009F
:1014A00041504093AD0087E06AE00E946E1081E0F9
:1014B00060E00E940A0C80916D00882379F08AE236
:1014C0008093640081E08093AD0080E06AE041E0B9
:1014D0000E94560F82E060E00E940A0C81E00E94A8
:1014E000041280919700823021F583E38093640099
:1014F00011E01093AD0087E06AE041E00E946E10B9
:1015000082E00E9404121093AD0087E06AE041E09F
:101510000E946E108093AC0084568A3010F40E94B2
:101520001A1381E00E9404128091A400833060F0BD
:10153000ADC084E38093640081E08093AD0087E0D8
:101540006AE041E00E946E1085E38093640013E03E
:101550008091A900412F481B4093AD0087E06AE0CD
:101560000E946E108093AC0084568A3098F40E94DA
:101570001A138091A400833008F088C08091A900DC
:10158000412F481B4093AD0087E06AE00E946E1037
:101590008093AC0080E00E94041281E08093AD0053
:1015A00087E06AE041E00E946E108093AC008456B0
:1015B0008A3038F40E941A138091A400833008F016
:1015C00065C083E00E9404128CE380936400409124
:1015D000A90041504093AD0087E06AE00E946E1080
:1015E0008093AC0084568A3090F40E941A13809144
:1015F000A400833008F04AC04091A90041504093B4
:10160000AD0087E06AE00E946E108093AC0080E03D
:101610000E94041281E08093AD0087E06AE041E01F
:101620000E946E108093AC0084568A3030F40E9481
:101630001A138091A400833048F581E00E940412BF
:1016400086E48093640043E08091A900481B4093A6
:10165000AD0087E06AE00E946E108093AC00845673
:101660008A3088F40E941A138091A400833070F4A9
:101670004091A90041504093AD0087E06AE00E948C
:101680006E108093AC0088E4809364000E9438124E
:101690000E9462121F9108951F930E94D3110E940D
:1016A000670B11E01093AD008AE08093640084E141
:1016B0000E94C80E0E94560D10939D000E9453096F
:1016C0000E94AF061F9108950E944C0B0895E5E615
:1016D000F0E01082118212821382148215823796F2
:1016E00080E0EF38F807A9F7089530919D00313078
:1016F000A1F42091A9008091970090E00196FC014F
:1017000053E0EE0FFF1F5A95E1F7E81BF90BEB5979
:10171000FF4FE20FF11D318337C0332339F420919D
:10172000A9008091970090E0019608C03330B1F491
:101730002091A9008091970090E00197FC0143E07F
:10174000EE0FFF1F4A95E1F7E81BF90BEB59FF4F2E
:10175000E20FF11D319781E0808316C03230A1F491
:101760002091A9008091970090E00197FC0133E05F
:10177000EE0FFF1F3A95E1F7E81BF90BEB59FF4F0E
:10178000E20FF11D81E08183809199008F5F80934A
:101790009900089580919D00813021F48091A900E5
:1017A00081500DC0882331F480919700815080933F
:1017B00097000895833031F48091A9008F5F809362
:1017C000A9000895823029F4809197008F5F80935B
:1017D0009700089580919D00813021F48091A900A7
:1017E0008F5F0DC0882331F4809197008F5F8093C5
:1017F00097000895833031F48091A900815080933F
:10180000A9000895823029F4809197008150809337
:1018100097000895809397006093A90008958033FE
:1018200009F46FC08133F0F58C3009F46CC08D3051
:10183000E0F4833009F46FC0843038F4813009F467
:101840006AC0823008F063C05AC0863009F45FC0B5
:10185000873020F4843009F066C055C0873009F421
:101860005AC0883009F05FC048C0883109F445C0CB
:10187000893148F48F3009F454C08031F1F18E3051
:1018800009F051C044C08E31F1F18F3120F48C3118
:1018900009F049C038C08F3109F443C0803209F0E3
:1018A00042C02FC08038A0F48E37B8F5803469F17B
:1018B000813438F48C3309F18F3399F1883399F5F9
:1018C00020C0803711F18837E1F0803661F51DC006
:1018D000803F29F1813F38F4803CD9F0803EC9F047
:1018E000803809F516C08C3FD1F08D3F18F4883F41
:1018F000D1F415C08E3FB8F010C080E0089589E0A3
:1019000008958FEF089581E008958EEF089582E0A5
:1019100008958DEF089583E008958BE008958DE09C
:1019200008958CE008958AE008951F93182F0E946F
:101930000A0284E10E94EB0180919A0064E10E9416
:10194000D213682F8E5E6B5E0E94B200812F0E94C0
:10195000EB010E945B011F9108950E940A0284E13D
:101960000E94EB0180919A0064E10E94D213682FDB
:101970008E5E6B5E0E94B200809198008C72E1F7DF
:101980000E945B0108951F93182F0E940A0284E1B0
:101990000E94EB0180919A00612F0E94D213682F60
:1019A0008E5E6B5E0E94B2008091980090E0837022
:1019B0009070892BC9F30E945B0180919A0060911D
:1019C0009A006695669566958695869586950E9499
:1019D000A3008091980090E083709070892BC9F3E8
:1019E0008091980090E083709070892BC9F70E94D5
:1019F0005B011F9108951F93182F0E940A0284E132
:101A00000E94EB0180919A00612F0E94D213682FEF
:101A10008D5E6C5E0E94A30010E004C01F5F85E035
:101A20000E94EB01809198008C7211F41436B1F78A
:101A30000E945B011F9108951F93182F0E940A02B4
:101A400084E10E94EB0180919A0064E10E94D2132C
:101A5000682F8E5E6B5E0E94A300812F0E94EB01B7
:101A60000E945B011F9108950E940A0284E10E9476
:101A7000EB0180919A0067E00E94D213682F0E94C8
:101A8000D0008091AA000E940F0C8930D1F780917C
:101A9000A500883341F08091A5008C3121F0809120
:101AA000A5008831A1F70E945B0108950E940A02F7
:101AB00084E10E94EB018BE16BE10E94D0008091F8
:101AC000A500883341F08091A500883321F08091F2
:101AD000A5008831A1F70E945B018BE16CE10E94B7
:101AE000D0008091AA00882341F08091AA00813023
:101AF00021F08091AA008138A1F78091AA008C3151
:101B000021F08091AA008831C1F70E945B010895FD
:101B10000E940A0284E10E94EB0186E16EE10E94CC
:101B2000D0008091A500883341F08091A5008C31D0
:101B300021F08091A5008831A1F70E945B010895F2
:101B40000E940A0284E10E94EB018BE169E10E949C
:101B5000D0008091AA008871E1F78091AA008C31B1
:101B600021F08091AA008831C1F70E945B0108959D
:101B70000E940A0284E10E94EB018CE16CE10E9468
:101B8000C1008091A500883341F08091A5008C317F
:101B900021F08091A5008831A1F70E945B018BE1C3
:101BA0006DE10E94C1008091AA008871E1F78091E7
:101BB000AA00883321F08091AA008831C1F70E94E1
:101BC0005B0108950E940A0284E10E94EB018DE10D
:101BD0006AE10E94C1008091AA008871E1F78091BA
:101BE000AA00883341F08091AA00883121F08091C9
:101BF000AA008C31A1F70E945B0108950F931F93F7
:101C000080919A0067E00E94D213082F8091AA0069
:101C10000E940F0C182F8091A5000E940F0C982F86
:101C2000812F8D5F873008F010E0892F8D5F87301E
:101C300008F090E0191B17FF04C0802F602F0E944E
:101C4000C100111624F4802F602F0E94D0008091D3
:101C5000AA000E940F0C182F9091A5008D5F87306D
:101C600008F041C0892F0E940F0C982F8D5F87309C
:101C7000D0F5191761F70E945B0110919A008091CD
:101C8000AA000E940F0C082F9091A5008D5F87304D
:101C900050F5892F0E940F0C982F8D5F873018F513
:101CA000169516951695091B07FF04C0812F612F05
:101CB0000E94C100101624F4812F612F0E94D000D1
:101CC0008091AA000E940F0C182F9091A5008D5FA3
:101CD000873048F4892F0E940F0C982F8D5F873032
:101CE00010F4191769F70E945B011F910F91089575
:101CF0000E940A0284E10E94EB018BE169E10E94EB
:101D0000D0008091AA008C73E1F78091AA008C31F9
:101D100021F08091AA008831C1F70E945B010E94E6
:101D2000FE0D08950E94780E0E94FE0D80919A008B
:101D300060919A00669566956695869586958695D6
:101D40000E94B2008091980090E083709070892B7F
:101D5000C9F30E94780E0E94FE0D08950E940A02A7
:101D600084E10E94EB018CE16CE10E94C100809152
:101D7000AA008C73E1F78091AA00883321F080914A
:101D8000AA008831C1F70E945B010E94FE0D0895F0
:101D9000FF920F931F93182F0E940A0284E10E9462
:101DA000EB0180919A00612F0E94D213082F85E1E8
:101DB000F82E8091A5000E940F0C182F8E5E6F2DBB
:101DC000611B600F800F0E94B20084E60E94E10157
:101DD00015307CF30E945B01802F8E5E0B5E602FBE
:101DE0000E94B2008091A5008C73E1F70E945B0114
:101DF0000E945B011F910F91FF9008950F931F9315
:101E0000182F0E940A0284E10E94EB0180919A003F
:101E1000612F0E94D213082F0C5E182F1D5E809137
:101E2000AA000E940F0C85300CF080E0612F681B27
:101E3000800F0E94A30084E60E94E1018091980037
:101E40008C7269F30E945B011F910F9108950F93AB
:101E50001F93182F0E940A0284E10E94EB018091D7
:101E60009A00612F0E94D213082F8091AA000E942D
:101E70000F0C182F602F680F802F811B0E94A3006A
:101E800084E60E94E101153084F30E945B01802FFB
:101E9000602F0E94A3008091AA008C73E1F70E943A
:101EA0005B010E945B011F910F9108957F928F92B9
:101EB0009F92AF92BF92CF92DF92EF92FF920F93D9
:101EC0001F93CF93DF93D42E442309F4F9C080915C
:101ED000AA008091A5001092A30010929E0010927B
:101EE000BE0080919A000E94D213282FA82EBB24F6
:101EF0008CE791E0B5010E94F213EB01EE2400E0C3
:101F000042E1742E720E3DED832E3FEF932E95E14C
:101F1000C92EC20E02C0ED2C03E08091AA000E94DF
:101F20000F0C182F8091A5000E940F0C982F812F65
:101F30008D5F873018F410939E0002C010919E00B0
:101F4000892F8D5F873018F49093BE0002C0909166
:101F5000BE00F92EF11A4F2D552747FD5095489D8B
:101F60009001499D300D589D300D1124910F61EF66
:101F70009602C0011124280F391F8091A3009927D0
:101F800087FD9095841B950BAC014C9FC0014D9F24
:101F9000900D5C9F900D1124280F391F2A9DC001C0
:101FA0002B9D900D3A9D900D11246EE27FEF0E94C3
:101FB000F213670D653608F064E6862F6C2D0E94DB
:101FC000B200F092A30084E60E94E1018091A50096
:101FD0008079803929F08091A5008970893081F459
:101FE000002371F485E00E94EB018091A5008079C7
:101FF000803929F08091A5008970893009F401E0C9
:102000008091A5008079803941F08091A500897088
:10201000893019F0013009F402E08091980090E0D5
:1020200083709070892B81F0023071F485E00E94FA
:10203000EB018091980090E083709070892B21F0E3
:10204000E3940E94CA0B00E0DE1409F066CF809191
:10205000980090E083709070892B09F45CCF0E9407
:102060005B0180919A0060919A00669566956695ED
:102070008695869586950E94A3008091980090E0B1
:1020800083709070892BC9F38091980090E08370E1
:102090009070892BC9F780919A0060919A0066959B
:1020A000669566958695869586950E94B200809184
:1020B000980090E083709070892BC9F30E945B01B7
:1020C000DF91CF911F910F91FF90EF90DF90CF9014
:1020D000BF90AF909F908F907F9008956F927F9266
:1020E0009F92AF92BF92CF92DF92EF92FF920F93A7
:1020F0001F93DF93CF9300D00F92CDB7DEB7A82EFA
:10210000962EB42E442311F480E03CC10E940A02B2
:1021100084E10E94EB018091AA008091A5000E94B9
:102120000F0C1092A30010929E001092BE0090918E
:102130009A00893039F0892F692D0E94D213182F07
:10214000198208C080919A0069E10E94D213182F69
:1021500021E02983FF24CC24EE24FDED6F2EFFEF38
:102160007F2E02C0E3E0FE2E8091AA000E940F0C99
:10217000082F8091A5000E940F0C282F893051F064
:102180003981313031F480919A00692D0E94D21347
:10219000182F1982802F8D5F873018F400939E00CE
:1021A00002C000919E00822F8D5F873018F420932B
:1021B000BE0002C02091BE00D02ED21A4D2D552750
:1021C00047FD5095812F90E09B838A831C5E469D3E
:1021D000F001479DF00D569DF00D1124200FA1EF49
:1021E0002A02C0011124E80FF91F2091A300332710
:1021F00027FD3095241B350B86E292E06A817B81B6
:102200000E94F213269FC001279F900D369F900DCC
:102210001124E80FF91F2A813B81E29FC001E39F4F
:10222000900DF29F900D11246AE17FEF0E94F2134E
:10223000862F810F1451853608F084E6612F6D5E7C
:102240000E94A300D092A30084E60E94E101809145
:10225000AA00809198008C7229F00E945B018E2D5B
:102260008C5990C08091AA008079803929F08091A2
:10227000AA008970893089F4FF2079F485E00E94F2
:10228000EB018091AA008079803929F08091AA0021
:102290008970893011F4FF24F3948091AA00807929
:1022A000803951F08091AA008970893029F031E09D
:1022B000F31611F472E0F72E8091980090E083708D
:1022C0009070892B89F082E0F81671F485E00E9405
:1022D000EB018091980090E083709070892B21F041
:1022E000E3940E94EA0BFF2497E0A91619F0A9E0F5
:1022F000AA1659F48091AA00817839F0CC2029F4EB
:102300000E94C813813089F403C0B1E0CB1669F490
:102310000E94750BE9E0AE1631F40E94EA0BEB2C3B
:1023200062E0C62E05C052E0C52EBE1409F01CCFD7
:102330008091980090E083709070892B09F412CFFF
:102340008AE00E94EB010E945B0180919A006091FB
:102350009A006695669566958695869586950E94FF
:10236000B2008091980090E083709070892BC9F33F
:102370000E945B01F2E0CF1619F48E2D825902C043
:102380008E2D88580F900F900F90CF91DF911F9155
:102390000F91FF90EF90DF90CF90BF90AF909F9004
:1023A0007F906F90089510929D0010929700109268
:1023B000A9001092A4001092AB0010929900089509
:1023C00080919A0060919A006695669566958695CB
:1023D000869586950E94C10084EB0E94EB010E94C5
:1023E0005B01089580919A0060919A0066956695C8
:1023F00066958695869586950E94D00084E60E9413
:10240000EB010E945B0108951F93182F282F30E0E5
:1024100080919D00281B31092115310539F11216D3
:10242000130664F08FEF2E3F3807B9F08FEF2F3F80
:102430003807B4F42D5F3F4FB9F40AC0223031059C
:1024400061F02230310524F02330310569F408C0F1
:1024500080E090E00E94AE0E07C00E94920E04C081
:1024600080E090E00E94780E10939D001F910895E7
:1024700080919D00833071F081E00E94041244E05D
:102480008091A900481B4093AD0088E06AE00E945B
:102490006E100AC044E08091A900481B4093AD0033
:1024A00080E06AE00E94560F80E00E94041244E03F
:1024B00080919700481B4093AD0088E06AE00E943D
:1024C0006E10089580919D00833011F0882311F4DF
:1024D0000E94E20D80919D008150823010F40E9494
:1024E000A00D84E10E94FE0E0E94AD0C0E94FE0D24
:1024F0000E94F2110E94B9040E94F10480E49BE062
:102500000E94CD048AEF0E94EB018AEF0E94EB014A
:102510000E94B0050E94C3048091A4008150809362
:10252000A4008091AB008F5F8093AB000E945A059E
:102530000E940D0582E30E94EB010E94F1040E94BB
:10254000B9048AEF0E94EB018AEF0E94EB010E941E
:10255000B0050E94C3048091A40081508093A40020
:102560008091AB008F5F8093AB000E94B9040E9402
:10257000290582E30E94EB010E944D0582E30E943F
:10258000EB010E94800582E30E94EB010E9473052B
:102590000E9490050E94B9040E94F1040E948005E7
:1025A0000E945A050E940D0582E30E94EB010E94E1
:1025B000F1040E94B9040E9490058AEF0E94EB0189
:1025C0008AEF0E94EB010E94B0050E94C3048EEDC9
:1025D0009DE00E94CD048091AB008F5F8093AB00A3
:1025E0001092A4000E94FE0D81E08093AD0084E172
:1025F0000E94C80E08950E94A0058091A40088231F
:1026000089F40E944D0582E30E94EB010E9480053F
:1026100082E30E94EB010E9473050E9490050E94D4
:10262000F10402C00E9473058091A4008F5F809323
:10263000A40008950E94AD0C86E40E941C0D0E9427
:1026400040050E94A0058091A400882369F40E949F
:102650004D0582E30E94EB010E94800582E30E9407
:10266000EB010E94730507C0823019F40E947305C4
:1026700004C00E94A9040E9490058091A4008F5F6D
:102680008093A4000E94FE0D81E08093AD0088E05D
:102690006AE041E00E946E1008950E94AD0C86E44D
:1026A0000E941C0D0E9440050E94A0058091A4007C
:1026B000882369F40E944D0582E30E94EB010E9489
:1026C000800582E30E94EB010E94730507C08230FF
:1026D00019F40E94730504C00E94A9040E94900589
:1026E0008091A4008F5F8093A40008950E94AD0C98
:1026F00086E40E941C0D0E9440050E94A00584E60D
:102700000E94EB018091A400882329F40E94A9046F
:102710000E94900502C00E94A9048091A4008F5FCE
:102720008093A40008958AEF0E941C0D0E94360534
:1027300084E10E94EB010E9490058AEF0E94EB0168
:102740008091A40081508093A40086E90E94950C9A
:102750000E94D5040E949F048AEF0E94EB010E9410
:1027600080058AEF0E94EB010E9429050E94A005C6
:1027700084EB0E941C0D0E94360584E10E94EB014F
:102780000E9490058091A40081508093A400089538
:102790000E9423028091C30090E0853608F091E00A
:1027A000892F0895991B79E004C0991F961708F0A6
:1027B000961B881F7A95C9F780950895AA1BBB1BA5
:1027C00051E107C0AA1FBB1FA617B70710F0A61B31
:1027D000B70B881F991F5A95A9F780959095BC0152
:1027E000CD01089597FB092E07260AD077FD04D066
:1027F000E5DF06D000201AF4709561957F4F0895AB
:0E280000F6F7909581959F4F0895F894FFCFBD
:00000001FF
